:020000040800F2
:1000000038070020B50100088D1C0008851C000879
:10001000891C000871020008B91D000800000000DA
:10002000000000000000000000000000951C000817
:100030007502000800000000911C0008991C0008CF
:10004000CF010008CF010008CF010008CF01000850
:10005000CF010008CF010008CF010008CF01000840
:10006000CF010008CF010008CF010008CF01000830
:10007000CF010008CF010008CF010008CF01000820
:10008000CF010008CF010008CF010008CF01000810
:10009000CF010008CF010008CF010008CF01000800
:1000A000CF010008CF010008CF010008CF010008F0
:1000B000CF010008CF010008CF010008CF010008E0
:1000C000CF010008CF010008CF010008CF010008D0
:1000D000CF010008AD1D0008CF010008CF010008C6
:1000E000CF010008CF010008CF01000800F002F89E
:1000F00000F050F814A696E8000CB244B344DA4578
:1001000001D100F047F8BAE80F000FA696E83000DA
:10011000A5EB040504EB0607AAEB0704A7F101070A
:100120004FEA15154FEA3414A4F10104AC4201D38F
:1001300000F030F813F0010F18BFFB1A43F0010371
:1001400000F001F8DBE71847C0210000E0210000C3
:10015000103A24BF78C878C1FAD8520724BF30C8F3
:1001600030C144BF04680C60704700007047000055
:100170000023002400250026103A28BF78C1FBD8B0
:10018000520728BF30C148BF0B6070471FB51FBD65
:1001900010B510BD00F031F81146FFF7F7FF01F080
:1001A000A7FE00F04FF803B4FFF7F2FF03BC00F026
:1001B00057F800000948804709480047FEE7FEE776
:1001C000FEE7FEE7FEE7FEE7FEE7FEE7FEE7FEE707
:1001D00004480549054A064B704700009D1C00086D
:1001E000ED00000838010020380700203803002007
:1001F00038030020704770477047754600F02CF8B0
:10020000AE4605006946534620F00700854618B003
:1002100020B5FFF7DDFFBDE820404FF000064FF0AE
:1002200000074FF000084FF0000BAC46ACE8C009E7
:10023000ACE8C009ACE8C009ACE8C00921F007018E
:100240008D46704710B50446AFF300802046BDE8E8
:100250001040FFF7A8BF00000048704710000020C2
:1002600001491820ABBEFEE72600020070470000DF
:10027000FEE7000070470000014690F821000228C8
:1002800016D10868D1E90FC3026822F00E0202609D
:10029000026822F001020260012000FA03F2CCF8A9
:1002A000042081F821000020002281F820207047DE
:1002B000042088630120002281F82020704700007C
:1002C00090F82110022923D10268116821F00E0153
:1002D00011602F211368C4F202018A4240F2040126
:1002E000C4F2020123F00103136015DD3023C4F2D0
:1002F00002039A421CD04423C4F202039A421BD048
:100300005823C4F202039A421CD14FF4803321E0F7
:1003100004218163012070470823C4F202039A423A
:100320000ED01C23C4F202039A420BD1102311E019
:100330004FF480730EE000BF4FF480530AE000BF1B
:10034000012307E001F1680C4FF08073624508BF9C
:100350004FF480130B60012180F82110426B0021C3
:1003600080F8201022B180B590470021BDE8804080
:10037000084670472DE9F04F82B00E68002E00F05D
:10038000FD8041F20042C4F20102042340F2004E1B
:10039000904208BF03234FF6FF7CC4F2010E009386
:1003A00000240123C1F2100C4FF0000A4FF00009A5
:1003B00044E000BF012704F00C030F229A402BEA0F
:1003C000020207FA03F34FEA9A051A4346F825207A
:1003D0004E6840F20C45F202DEF8082054BF22EAD3
:1003E000080242EA0802C4F20105CEF808202A6891
:1003F000B30254BF22EA080242EA08022A60B303A9
:10040000DEF8042054BF22EA080242EA0802F3039D
:10041000CEF80420DEF800204FF0010354BF22EA9A
:10042000080242EA0802CEF800200E680AF1010A2A
:1004300036FA0AF204F1040400F0A08003FA0AFB81
:1004400016EA0B08F1D04E68664511DC122E55D81D
:10045000DFE806F0340A4448545454545454545475
:1004600054545454544C5000D1F80C9046E000BF02
:100470004FF6FF72C1F2210296420FDC0022C1F258
:10048000110296421AD00022C1F21202964215D0F1
:100490000022C1F22102964210D02FE00022C1F2C8
:1004A000220296420AD00022C1F23102964205D0C1
:1004B0000022C1F23202964220D100BF8A684AB1BE
:1004C000012A14BFC0F814B0C0F810B04FF00809EA
:1004D00014E000BF4FF0040910E000BFCA6802F149
:1004E00008090BE04FF0000908E000BFCA6802F1FC
:1004F000040903E0CA6802F10C0900BF224606465F
:10050000B8F5807F24BF203A043637680F25954020
:1005100027EA050509FA02F22A433260CA79D206AF
:100520007FF583AF41F21803C4F202031A68AEF5F7
:100530007E7642F001021A601A6802F0010201920E
:10054000019A2AF0030256F802B040F60002C4F203
:100550000102904210D040F60042C4F201029042E3
:100560003FF428AF41F20002C4F20102009F904222
:1005700008BF02271FE700BF00271CE702B0BDE845
:10058000F08F0000C26802EA0103914341EA03418F
:1005900001617047002A08BF09040161704700002B
:1005A00040F23410C2F200000068704740F20400CC
:1005B00040F23411C2F20000C2F2000100780A6871
:1005C000104408607047000080B542F20000C4F299
:1005D0000200016841F010010160032000F08CF876
:1005E0000F2000F005F800F027F8002080BD000083
:1005F00070B540F20406C2F2000640F20C013278F7
:10060000C2F200014FF47A730968B3FBF2F20446B8
:10061000B1FBF2F1084600F089FB0F2C4FF0010509
:1006200008D838B94FF0FF3021460022002500F0ED
:1006300037F87460284670BD82B041F21800C4F2E9
:1006400002000168022241F001010160016801F02D
:10065000010101910199416841F080514160406878
:1006600000F08050009000980420C4F2010001685E
:1006700062F31A61016002B070470000002848BFB1
:10068000704700F01F01012202FA01F11C2202EA68
:10069000D0004EF20012CEF20002815070470000EE
:1006A00010B54EF60C5CCEF2000CDCF80030C3F353
:1006B000022E8EF00704042C28BF0424BEF103038D
:1006C0004FF0FF3E0EFA04F438BF0023A1439940D7
:1006D0000EFA03F39A43114300F00F0200F1604356
:1006E0000901043A03F564436244002848BF02F15B
:1006F0000C03197010BD00004EF60C51CEF2000133
:100700000A684FF6FF031A4060F30A2242F0806045
:1007100040F0FD7008607047002804BF012070475A
:100720002DE9F04381B042F20008C4F20208044609
:10073000D8F800000D4600F0070088420CD2D8F827
:10074000000020F007002843C8F80000D8F8000097
:1007500000F00700A8426CD1206841F2040981072B
:10076000C4F2020917D5410705D5D9F8001041F4A4
:10077000E061C9F80010010705D5D9F8001041F46F
:100780006051C9F80010D9F80010A26821F0F001FA
:100790001143C9F80010C00742D1D8F8000000F09A
:1007A0000700A8420CD9D8F8000020F00700284321
:1007B000C8F80000D8F8000000F00700A84238D1BF
:1007C0002068410707D5D9F80010E26821F4E061FC
:1007D0001143C9F80010000708D5D9F800002169B5
:1007E00020F4605040EAC100C9F80000D9F80020A8
:1007F00002F00C00082841F20020C0F27A0051D12A
:1008000042F2F823C2F38341C0F60003595CD203DD
:100810003CD440F60010C0F23D00484342E000BF27
:10082000606802280AD001282AD159F8041C8903DB
:1008300008D4012001B0BDE8F08300BF59F8041CC2
:100840008901F6D5D9F8001021F003010843C9F851
:100850000000FFF7A5FE064641F28837D9F80000F0
:10086000616800F00C00B0EB810F96D0FFF798FEA6
:10087000801BB842F2D9032001B0BDE8F08300BF6D
:1008800059F8041C8907D4D5DCE700BFD9F800204B
:1008900042F2F623C2F34042C0F600039A5C48439A
:1008A000B0FBF2F0D9F8001042F2DE22C1F30311DE
:1008B000C0F60002515C40F20C0220FA01F140F255
:1008C0000800C2F200000068C2F200021160FFF7E7
:1008D0008FFE002001B0BDE8F083000040F20C0064
:1008E00041F20401C2F20000C4F20201006809688A
:1008F00042F2EE22C1F30221C0F60002515CC84070
:100900007047000040F20C0041F20401C2F2000006
:10091000C4F202010068096842F2EE22C1F3C2216A
:10092000C0F60002515CC84070470000002804BFB8
:10093000012070472DE9F04182B00446007841F271
:100940000006C007C4F202060CD0706800F00C006C
:10095000042840F081803068800303D56068002857
:1009600000F04E81207880071BD5706810F00C0FC6
:1009700009D0706800F00C00082840F08B80706887
:10098000C00300F187803068800703D52069012803
:1009900040F036813068616920F0F80040EAC1001B
:1009A00030602078000713D4207840072CD4E56904
:1009B000002D00F02081706800F00C00082840F045
:1009C000AF80012D40F00C81012002B0BDE8F08124
:1009D000A069002800F08C800020C4F24220012190
:1009E000C0F88014FFF7DCFD054600BF706A800781
:1009F00000F1BA80FFF7D4FD401B0228F6D903208E
:100A000002B0BDE8F08100BFF0695FEAC00808D419
:100A1000F06940F08050F061F06900F08050009083
:100A2000009847F20007C4F200073868C0054DD4AB
:100A3000386840F480703860FFF7B2FD054600BFAB
:100A40003868C00542D4FFF7ABFD401B6428F7D9D6
:100A5000032002B0BDE8F081706800F00C000828A7
:100A600003D17068C0033FF576AF6068002800F0DE
:100A70000981B0F5A02F00F01D81B0F5803F00F096
:100A80001D81306820F480303060306820F4802090
:100A900017E100BF2069002840F20000C4F24220A4
:100AA00000F08C8001210160FFF77AFD054600BF50
:100AB000306880073FF56EAFFFF772FD401B0228DC
:100AC000F6D9032002B0BDE8F08100BFE06800283D
:100AD00000F09A80052800F0B180012800F0B28073
:100AE000306A20F001003062306A20F00400ACE08F
:100AF0000020C4F242200021C0F88014FFF750FD0E
:100B0000054600BF706A80077FF54EAFFFF748FDCE
:100B1000401B0228F6D9032002B0BDE8F08100BFD7
:100B20000027C4F2422700203866FFF739FD022D66
:100B300005460DD13068800140F1D680FFF730FDC9
:100B4000401B02284FF00300F4D902B0BDE8F08149
:100B5000306880014FD5FFF723FD401B02284FF07E
:100B60000300F5D9F1E700BF40F20C00C2F200002B
:100B7000006844F6D351C1F26201A0FB0101480AAA
:100B8000019000BF00BF0198411E002801913FF471
:100B90000BAF00BF0198411E002801913FF404AF44
:100BA00000BF0198411E002801913FF4FDAE00BF37
:100BB0000198411E00280191E4D1F5E60021016071
:100BC000FFF7EEFC054600BF306880077FF5E9AE11
:100BD000FFF7E6FC401B02284FF00300F4D9B4E70E
:100BE0007068216A00F480328A4209D1616A00F497
:100BF0007010884204D1002002B0BDE8F08100BF2F
:100C0000012002B0BDE8F081306A20F001003062BE
:100C1000306A20F004003062FFF7C2FC054641F262
:100C2000883700BF306A800722D5FFF7B9FC401B28
:100C3000B8424FF00300F5D987E700BF306A40F0B3
:100C400004003062306A40F001003062FFF7A8FC17
:100C5000054641F2883700BF306A800708D4FFF7A5
:100C60009FFC401BB842F7D9032002B0BDE8F081D9
:100C7000B8F1000F3FF59BAEF06920F08050F061B5
:100C800095E600BF306820F480303060306820F492
:100C900080203060FFF784FC054600BF3068800389
:100CA0007FF560AEFFF77CFC401B64284FF003002B
:100CB000F4D94AE7306840F480203060306840F46E
:100CC00080303060FFF76CFC054600BF3068800361
:100CD0003FF548AEFFF764FC401B6428F6D90320BB
:100CE00002B0BDE8F08100BF206AB0F5803F05D1B9
:100CF0007168A26821F40031114371607168626A01
:100D000021F4741111430843706001203866FFF725
:100D100047FC0446306880013FF56DAFFFF740FCAB
:100D2000001B02284FF00300F4D90EE7411E0020FB
:100D3000B0EB116F1CBF012070474EF21002CEF2D3
:100D4000000251604EF62351CEF20001F0230B70E9
:100D5000072190601160704790F83C20012A04BF81
:100D600002207047B0B501F108053CCDD1E900CEB5
:100D700023F47C5322F470521A432EF4F0431A43A6
:100D80002CF4E0431A4324F4C0431A432A43C969AC
:100D900022F48042036811435964002180F83C101A
:100DA000BDE8B0400846704790F83C20012A4FF05B
:100DB000020236D010B580F83D200268D2F804E077
:100DC000D2F808C00C682EF07003234340F2FF7481
:100DD000C4F20004A24253600ADCB2F1804F13D087
:100DE00040F20043C4F200039A420DD011E000BF6C
:100DF00042F60043C4F201039A4205D040F60003D4
:100E0000C4F200039A4204D149682CF080031943CC
:100E100091600121002280F83D1080F83C20BDE85F
:100E20001040104670470000002804BF01207047A2
:100E300010B5044690F83D0028B9002084F83C0025
:100E4000204600F067F8022084F83D00206840F258
:100E5000FF730268C4F2000342F6004C9842C4F2E9
:100E6000010C15DCB0F1804F1AD040F20041C4F201
:100E70000001884214D0984218DCB0F1804F1DD098
:100E800040F20041C4F20001884217D01AE000BFCE
:100E9000604505D040F60001C4F200018842EAD165
:100EA000A16822F070020A439842E6DD604505D051
:100EB00040F60001C4F20001884203D1216922F406
:100EC00040720A43A36922F08001D4F804E0E2688A
:100ED000194360450160C262C0F828E002D161692F
:100EE000CCF8301001214161002084F8461084F8CC
:100EF0003E1084F83F1084F8401084F8411084F8C4
:100F0000421084F8431084F8441084F8451084F8A3
:100F10003D1010BD006842F60041C4F20101884254
:100F200018BF704781B041F21800C4F20200016896
:100F300041F400610160006800F4006000900098D6
:100F400001B0704790F83C20012A4FF0020200F0F7
:100F5000C58080B580F83D20D0F800C04FF677728C
:100F6000DCF8083023EA0202CCF808200B684F2B8B
:100F700028DC1F2B44DD202B45D0302B43D0402BC9
:100F800040F0AE80D1F804E0C968DCF82030DCF82D
:100F9000202022F00102CCF82020DCF8182022F0DA
:100FA000F00242EA011123F00A0242EA0E02CCF8F2
:100FB0001810CCF82020DCF8081041F0470121F08F
:100FC000300180E06F2B27DDB3F5005F48D0B3F52B
:100FD000805F7AD0702B40F08380D1E901E3C9684B
:100FE000DCF8082043EA0E0322F47F4243EA0121A1
:100FF0001143CCF80810DCF8081041F0770162E0EA
:101000000BB1102B6CD1DCF8081021F070011943E2
:1010100041F0070157E000BF502B35D0602B5FD166
:10102000D1F804E0C968DCF82030DCF8202022F098
:101030001002CCF82020DCF8182022F4704242EA9A
:10104000013123F0A00242EA0E12CCF81810CCF8BD
:101050002020DCF8081041F0670121F0100132E097
:10106000D1E901E3C968DCF8082043EA0E0322F461
:101070007F4243EA01211143CCF80810DCF8081044
:1010800041F480411FE000BFD1F804E0C968DCF8FA
:101090002030DCF8202022F00102CCF82020DCF8FF
:1010A000182022F0F00242EA011123F00A0242EA7B
:1010B0000E02CCF81810CCF82020DCF8081041F013
:1010C000570121F02001CCF808100022012180F8FE
:1010D0003D10002180F83C10BDE88040104670476C
:1010E0000122F3E780B586B0014640F60000C4F265
:1010F0000100096800F5105300229942049201D0C2
:1011000006B080BD41F21801C4F202010A6842F043
:1011100004020A60096801F00401019101994FF489
:101120004071029102210391059102A9FFF722F972
:1011300006B080BD90F83C30012B04BF0220704700
:101140004FEAB202032A3DD82DE9F043DFE802F06E
:1011500002407CB6036842F600461D6A1A6AC4F271
:10116000010622F001021A621A465C6852F818CF92
:10117000B3428E68D1F800E025F0020545EA060585
:101180000CD1CE68D1E9057824F4407425F00C0523
:1011900026F004063C43354344EA08042CF0730768
:1011A00047EA0E075C609F614F6809695F631D62D3
:1011B0009F6947F008079F619F6927F004079F61B7
:1011C000ACE000BF0121002280F83C2008467047B7
:1011D000036842F600461D6A1A6AC4F2010622F04C
:1011E00010021A621A46D3F804C052F8184FB342DC
:1011F0008E68D1F800E025F0200545EA06150FD1EC
:10120000CE68D1E905986FF0400725F0C00507EAE0
:10121000061635432CF4406748EA090647EA860C6F
:1012200024F4E64444EA0E27C3F804C09F614F68E3
:1012300009699F631D629F6947F400679F619F6909
:1012400027F480679F6168E0036842F600461D6AE4
:101250001A6AC4F2010622F480721A621A46D3F89E
:1012600004C052F81CEFB3428E680C6825F4007578
:1012700045EA06250FD1CE68D1E90598360240F23D
:10128000FF4725F44065BE4335432CF4405748EAF8
:10129000090647EA061C2EF073072743C3F804C06B
:1012A000DF614F680969DF631D62DF6947F0080786
:1012B000DF61DF6927F00407DF612FE0036842F692
:1012C0000047D3F820C01A6AC4F2010722F4805202
:1012D0001A621A465C6852F81C5FD1F800E08E680A
:1012E000BB4204D14F6924F4804444EA87142CF4AF
:1012F000005747EA063725F4E64646EA0E265C60C4
:10130000DE614E6809691E641F62DF6947F4006789
:10131000DF61DF6927F48067DF6109021368194321
:1013200011600021BDE8F043002280F83C2008460F
:1013300070470000002804BF0120704710B5044624
:1013400090F83D0028B9002084F83C00204600F0C9
:1013500067F8022084F83D00206840F2FF730268BD
:10136000C4F2000342F6004C9842C4F2010C15DCB2
:10137000B0F1804F1AD040F20041C4F2000188421F
:1013800014D0984218DCB0F1804F1DD040F20041DB
:10139000C4F20001884217D01AE000BF604505D0B2
:1013A00040F60001C4F200018842EAD1A16822F0AF
:1013B00070020A439842E6DD604505D040F6000120
:1013C000C4F20001884203D1216922F440720A4329
:1013D000A36922F08001D4F804E0E2681943604573
:1013E0000160C262C0F828E002D16169CCF8301017
:1013F00001214161002084F8461084F83E1084F8F1
:101400003F1084F8401084F8411084F8421084F8AA
:10141000431084F8441084F8451084F83D1010BD42
:101420007047000041B1082910D0042914BF00F111
:10143000410200F13F020BE090F83E20012A1CBF60
:1014400001207047022280F83E2013E000F14002A4
:101450001278012A1CBF012070470222082907D0F8
:10146000042914BF80F8412080F83F2002E000BF2B
:1014700080F84020006801F01F010122036A8A40C1
:1014800023EA02010162036A42F64441C4F2010107
:101490001A43A1F14403984202620FD040F2FF7157
:1014A000C4F20001884213DCB0F1804F1CD040F23E
:1014B0000041C4F20001884216D01AE00A6842F4E2
:1014C00000420A6040F2FF71C4F200018842EBDD85
:1014D00042F60041C4F20101884205D040F6000105
:1014E000C4F20001884204D1816801F00701062995
:1014F00003D0016841F00101016000207047000045
:101500007047000070470000B0B582B00446006824
:101510000168C368426901F02F05202D03F0200502
:1015200006D12DB1204602B0BDE8B04000F0BEBBF0
:101530005FEA017C1EBF02F0010E03F4907212EB11
:101540000E0243D1226BCD0618D5012A16D113F015
:10155000100213D0002101910168019141680191AD
:101560000199406940063BD4A08DE18DE28D002AAF
:1015700018BF884240F0F28102B0B0BD0A0640F1C7
:10158000E78013F0800200F0E38094F841102129F5
:10159000F2D1A168B1F5805F03D12169002900F083
:1015A0006382216A4A1C226209784160E18C013918
:1015B0000A04E184E0D1C16821F08001C160C16802
:1015C00041F04001C16002B0B0BD00BFCA0718BF02
:1015D00013F4807240F0D0804A0700F1D380D8E045
:1015E000E06B016849688AB2002AC5D0A38D9A428F
:1015F000C2D2E1858069202800F09E80206850E8F2
:10160000030F216820F4807041E80302DAB12068FA
:1016100050E8030F216820F4807041E8030292B182
:10162000206850E8030F216820F4807041E803022D
:101630004AB1206850E8030F216820F4807041E827
:101640000302002ADAD1206850E8050F216820F053
:10165000010041E80502C2B3206850E8050F216887
:1016600020F0010041E805027AB3206850E8050F38
:10167000216820F0010041E8050232B3206850E8FB
:10168000050F216820F0010041E80502002ADAD1A7
:101690001BE000BF206850E8050F216820F04000E3
:1016A00041E80502DAB1206850E8050F216820F012
:1016B000400041E8050292B1206850E8050F21681A
:1016C00020F0400041E805024AB1206850E8050FCB
:1016D000216820F0400041E80502002ADAD12020EC
:1016E00084F8420000202063206850E8030F21683E
:1016F00020F0100041E80302DAB1206850E8030F3F
:10170000216820F0100041E8030292B1206850E8FF
:10171000030F216820F0100041E803024AB120685D
:1017200050E8030F216820F0100041E80302002A6E
:10173000DAD1E06BFEF7A0FD02206063A08DE18DA1
:10174000401A81B2204602B0BDE8B040FFF7D8BED3
:1017500049067FF511AF13F040013FF40DAFC168AA
:1017600021F04001C1602021204684F8411002B0E0
:10177000BDE8B04000F084BA626C42F001026264DD
:101780004A0706D5BEF1000F03D0626C42F0020298
:1017900062648A0706D5BEF1000F03D0626C42F086
:1017A00004026264BCF1000F06D55EEA050203D0B4
:1017B000626C42F008026264626C002A3FF4DCAEA4
:1017C000890604D51DB1204600F070FA20684069F2
:1017D000616C00F0400001F00801401800F0B68094
:1017E000206850E8030F216820F4907041E803025C
:1017F000BAB3206850E8030F216820F4907041E8E4
:10180000030272B3206850E8030F216820F490703F
:1018100041E803022AB3206850E8030F216820F44E
:10182000907041E80302002ADAD11AE0206850E8FB
:10183000050F216820F0010041E80502DAB12068B7
:1018400050E8050F216820F0010041E8050292B13F
:10185000206850E8050F216820F0010041E80502EA
:101860004AB1206850E8050F216820F0010041E8E6
:101870000502002ADAD1206B012824D1206850E823
:10188000030F216820F0100041E80302DAB120685C
:1018900050E8030F216820F0100041E8030292B1E4
:1018A000206850E8030F216820F0100041E803028F
:1018B0004AB1206850E8030F216820F0100041E889
:1018C0000302002ADAD1202084F84200002020639D
:1018D00020684069400640F1C180206850E8050F4B
:1018E000216820F0400041E80502DAB1206850E8A4
:1018F000050F216820F0400041E8050292B1206800
:1019000050E8050F216820F0400041E805024AB187
:10191000206850E8050F216820F0400041E80502EA
:10192000002ADAD1E06B002800F0988041F6A1414E
:10193000C0F600014163FEF7C3FC00283FF41CAE73
:10194000E06B416B02B0BDE8B04008472046FFF7AE
:10195000D9FD0020606402B0B0BD00BF401A00BFD6
:10196000216851E8031F226821F4907142E80313B3
:10197000BBB3216851E8031F226821F4907142E84B
:10198000031373B3216851E8031F226821F4907197
:1019900042E803132BB3216851E8031F226821F4A6
:1019A000907142E80313002BDAD11AE0216851E864
:1019B000051F226821F0010142E80513DBB121680F
:1019C00051E8051F226821F0010142E8051393B197
:1019D000216851E8051F226821F0010142E8051342
:1019E0004BB1216851E8051F226821F0010142E84E
:1019F0000513002BDAD1202184F842100021216345
:101A0000216851E8031F226821F0100142E8031306
:101A1000DBB1216851E8031F226821F0100142E880
:101A2000031393B1216851E8031F226821F01001CC
:101A300042E803134BB1216851E8031F226821F0EB
:101A4000100142E80313002BDAD1022281B22046B2
:101A5000626302B0BDE8B040FFF752BD204602B05D
:101A6000BDE8B040FFF74EBD216A31F8022B6FF39D
:101A70005F224260216299E5002804BF012070477F
:101A800010B5044690F8410028B9002084F84000C1
:101A9000204600F063F8242084F841002068D4E94F
:101AA0000212C36823F40053C360036923F4405354
:101AB0001A430261D4E904231143C268194341F275
:101AC0000C639A431143C1604169A26921F44071DA
:101AD000114343F60002C4F201029042416103D077
:101AE000FEF7FCFE02E000BFFEF70CFFD4E9002386
:101AF000192148439900B0FBF1F048F21F5CC5F290
:101B0000EB1CA0FB0C314FF69C734909C0F6FF7328
:101B100001FB0300322303EB0010A0FB0C03F020B9
:101B200000EA531000EB0110C3F343110844906026
:101B30001069202120F490401061506920F02A00A3
:101B40005061D06840F40050D0600020606484F898
:101B5000411084F84210606310BD000070B586B07B
:101B600040F60044C4F20104006804F53051002638
:101B70008842049602D006B070BD00BF41F2180042
:101B8000C4F20200016802AD41F4804101600168C5
:101B900001F4804101910199016841F0080101605F
:101BA0000068294600F0080001900198402002904A
:101BB00002200390032005902046FEF7DBFB8020E7
:101BC000CDE90206204629460496FEF7D3FB042001
:101BD000C4F201000168002241F0E06141F004011B
:101BE000016025200121FEF75BFD2520FEF746FD63
:101BF00006B070BD90F84230202B07D100294FF07D
:101C0000010318BF002A05D1184670470223184661
:101C1000704700BF00230363816222218285C28551
:101C2000436480F842100169006819B1C16841F449
:101C30008071C160416941F001014161C16841F0B9
:101C40002001C1601846704740F2A001C2F20001B5
:101C500000684A68904218BF70474A780120572AA6
:101C6000087002D0772A05D1002040F20002C2F2AB
:101C700000025070081D01310122FFF7BBBF0000B8
:101C800070470000FEE70000FEE70000FEE70000EE
:101C90007047000070470000FEF788BC70470000E6
:101CA000406A0021C185C184FFF72CBC81B090F847
:101CB0004210222921D183680246B3F5805F09D101
:101CC00052F8281F52F8183C002B63D003685B6859
:101CD0000AE000BF52F8281F13B90369002BF5D0A2
:101CE00003685B6803F07F030B70116801311160BA
:101CF000C18D01390A04C18502D001B0704700BF0F
:101D00000168CA6822F02002CA60CA6822F48072A0
:101D1000CA604A6922F001024A61202180F842101B
:101D200000214163026B012A3CD10163016851E843
:101D3000031F026821F0100142E80313DBB10168C0
:101D400051E8031F026821F0100142E8031393B128
:101D5000016851E8031F026821F0100142E80313F3
:101D60004BB1016851E8031F026821F0100142E8FD
:101D70000313002BDAD101680A68D20606D50022C7
:101D800000920A680092496800910099818D01B023
:101D9000FFF7B6BB026852686FF35F2221F8022B8F
:101DA0008162A5E701B0FFF74FBF000040F2A40039
:101DB000C2F20000FFF7A8BBFEE70000B0B508289C
:101DC00088BFB0BD0C46DFE800F01F0517270517D8
:101DD0002F41530040F27005C2F200052846002151
:101DE000224600F019FA620805F118000121BDE849
:101DF000B04000F011BA00BF40F27005C2F2000519
:101E000062082846002116E040F27005C2F2000583
:101E10002846002120E000BF40F27005C2F2000514
:101E20002846012106E000BF40F27005C2F200051D
:101E300028460021224600F0EFF905F118000121A3
:101E40002246BDE8B04000F0E7B900BF40F270059F
:101E5000C2F2000528460121224600F0DDF905F115
:101E6000180000212246BDE8B04000F0D5B900BFFF
:101E700040F27004C2F2000420460221002200F069
:101E8000CBF904F1180002210022BDE8B04000F0B7
:101E9000C3B90000F0B581B040F2700540F60046CD
:101EA0000446C2F20005C4F201064FF4004728467A
:101EB000214604223346009700F0DEF905F11807A9
:101EC0004FF4804C3846214600223346CDF800C0FE
:101ED00000F0D2F928460221002200F09DF9384690
:101EE0000221002201B0BDE8F04000F095B90000E9
:101EF00098B0FEF769FB00240120CDE90644CDE946
:101F00000444019005904FF4E0104FF48031022515
:101F10000A9001A8CDE90214CDE90851FEF706FDAB
:101F200020B1EFF3108072B6FEE700BF0F20CDE9BD
:101F30000B054FF48060CDE90E040BA802210D942F
:101F4000FEF7EAFB20B1EFF3108072B6FEE700BFA8
:101F500041F21800C4F20200016840F6004841F066
:101F6000100101600168C4F2010801F01001019143
:101F70000199016808F5806541F020010160016860
:101F8000002201F020010191019901684FF40056EF
:101F900041F0080101600168002701F0080101918A
:101FA0000199016841F00401016000684FF400519B
:101FB00000F00400019001982846FEF7EBFA404635
:101FC0004FF4404100224FF44049FEF7E3FA0196F6
:101FD00001AE4FF0010A022428463146CDE902A79E
:101FE0000494FEF7C7F940463146CDE9019ACDE9A0
:101FF0000374FEF7BFF940F2EC0008F50051C2F29D
:10200000000040F2E7331797CDE91577CDE9127755
:102010000797472280E88600C0E90337C0E90577C3
:10202000FEF702FF20B1EFF3108072B6FEE700BFAB
:102030004FF48050149040F2EC00C2F2000014A95A
:10204000FEF780FF20B1EFF3108072B6FEE700BF0D
:1020500040F2EC00C2F20000FFF76CF920B1EFF3A0
:10206000108072B6FEE700BF40F2EC00C2F2000042
:1020700012A9FEF799FE28B1EFF3108072B600BFE7
:10208000FEE700BF60200B900020CDE90C00CDE9F9
:102090000E00CDE9100040F2EC00C2F200000BA9E6
:1020A0000022FFF747F828B1EFF3108072B600BFA7
:1020B000FEE700BF40F2EC00C2F200000BA90422D0
:1020C000FFF738F820B1EFF3108072B6FEE700BFDB
:1020D0004FF40050069040F2EC000026C2F20000DF
:1020E00001A90596CDE90366CDE901660896FEF7DC
:1020F00033FE28B1EFF3108072B600BFFEE700BFD9
:1021000040F2EC00C2F20000FEF7ECFF40F2A00546
:10211000C2F2000508F53051284640F8041F4FF47C
:1021200016510C22C0E90116C0E90366C0E9052674
:10213000C661FFF7A1FC28B1EFF3108072B600BFB3
:10214000FEE700BF40F2EC00C2F20000FFF7A2FE83
:10215000281D691C0122FFF74DFD40F20006A8F57D
:102160008064C2F200064FF020094FF06408002797
:1021700005E000BF712808BF86F800802F70204658
:102180004FF40051FEF7FEF928780028F7D0707858
:102190000128F3D16878A0F14201112926D8DFE89F
:1021A00001F0092525250D11153119251D25252598
:1021B00025252135317803202AE000BF3178002021
:1021C00026E000BF3178012022E000BF31780420F2
:1021D0001EE000BF317805201AE000BF31780620EC
:1021E00016E000BF3178072012E000BFA0F13001F7
:1021F000C9B20929BED800EB800009EB400030705D
:102200002F70BCE73178022002E000BF08200021D7
:10221000FFF7D4FD2F70B2E7B0B51546044689B17B
:1022200001291BD0022918BFB0BD60682189002296
:10223000FEF7B0F9D4E903010022BDE8B04000F098
:102240002BB800BF606821890022FEF7A3F9D4E90A
:1022500003012A46BDE8B04000F01EB8606821893D
:102260000122FEF797F9D4E90301C5F16402D2B265
:10227000BDE8B04000F010B880B594460246029820
:102280008E465360108108466146C2E903ECBDE802
:102290008040FFF7C7B8000000684FEAB101C36A89
:1022A000032988BF70475A4348F21F53C5F2EB1306
:1022B000A2FB03235B09DFE801F0030F070B00BF5C
:1022C00099B24163704700BF99B2C163704700BFC4
:1022D00099B20164704700BF99B2816370470000F2
:1022E00000000000000001020304060708090000C6
:1022F00000000102030401020203040506070809A5
:102300000A0B0C0D0E0F10102823000800000020EF
:1023100010000000500100083823000810000020C1
:10232000280700007001000864010000010000009F
:08233000100000000024F4007D
:04000005080000ED02
:00000001FF
